{
    "abi": [
        {
            "type": "constructor",
            "inputs": [],
            "stateMutability": "nonpayable"
        },
        {
            "type": "fallback",
            "stateMutability": "payable"
        },
        {
            "type": "receive",
            "stateMutability": "payable"
        },
        {
            "type": "function",
            "name": "EMERGENCY_WITHDRAWAL_DELAY",
            "inputs": [],
            "outputs": [
                {
                    "name": "",
                    "type": "uint256",
                    "internalType": "uint256"
                }
            ],
            "stateMutability": "view"
        },
        {
            "type": "function",
            "name": "MAX_AGE",
            "inputs": [],
            "outputs": [
                {
                    "name": "",
                    "type": "uint256",
                    "internalType": "uint256"
                }
            ],
            "stateMutability": "view"
        },
        {
            "type": "function",
            "name": "MAX_CAPACITY",
            "inputs": [],
            "outputs": [
                {
                    "name": "",
                    "type": "uint256",
                    "internalType": "uint256"
                }
            ],
            "stateMutability": "view"
        },
        {
            "type": "function",
            "name": "MAX_DETAILS_LENGTH",
            "inputs": [],
            "outputs": [
                {
                    "name": "",
                    "type": "uint256",
                    "internalType": "uint256"
                }
            ],
            "stateMutability": "view"
        },
        {
            "type": "function",
            "name": "MAX_EVENT_DURATION",
            "inputs": [],
            "outputs": [
                {
                    "name": "",
                    "type": "uint256",
                    "internalType": "uint256"
                }
            ],
            "stateMutability": "view"
        },
        {
            "type": "function",
            "name": "MAX_LOCATION_LENGTH",
            "inputs": [],
            "outputs": [
                {
                    "name": "",
                    "type": "uint256",
                    "internalType": "uint256"
                }
            ],
            "stateMutability": "view"
        },
        {
            "type": "function",
            "name": "MAX_NAME_LENGTH",
            "inputs": [],
            "outputs": [
                {
                    "name": "",
                    "type": "uint256",
                    "internalType": "uint256"
                }
            ],
            "stateMutability": "view"
        },
        {
            "type": "function",
            "name": "MAX_TICKET_PRICE",
            "inputs": [],
            "outputs": [
                {
                    "name": "",
                    "type": "uint256",
                    "internalType": "uint256"
                }
            ],
            "stateMutability": "view"
        },
        {
            "type": "function",
            "name": "MAX_URL_LENGTH",
            "inputs": [],
            "outputs": [
                {
                    "name": "",
                    "type": "uint256",
                    "internalType": "uint256"
                }
            ],
            "stateMutability": "view"
        },
        {
            "type": "function",
            "name": "MIN_CAPACITY",
            "inputs": [],
            "outputs": [
                {
                    "name": "",
                    "type": "uint256",
                    "internalType": "uint256"
                }
            ],
            "stateMutability": "view"
        },
        {
            "type": "function",
            "name": "MIN_EVENT_DURATION",
            "inputs": [],
            "outputs": [
                {
                    "name": "",
                    "type": "uint256",
                    "internalType": "uint256"
                }
            ],
            "stateMutability": "view"
        },
        {
            "type": "function",
            "name": "attendeeCount",
            "inputs": [
                {
                    "name": "",
                    "type": "uint256",
                    "internalType": "uint256"
                }
            ],
            "outputs": [
                {
                    "name": "",
                    "type": "uint256",
                    "internalType": "uint256"
                }
            ],
            "stateMutability": "view"
        },
        {
            "type": "function",
            "name": "buyTicket",
            "inputs": [
                {
                    "name": "_index",
                    "type": "uint256",
                    "internalType": "uint256"
                }
            ],
            "outputs": [],
            "stateMutability": "payable"
        },
        {
            "type": "function",
            "name": "cancelEvent",
            "inputs": [
                {
                    "name": "_index",
                    "type": "uint256",
                    "internalType": "uint256"
                }
            ],
            "outputs": [],
            "stateMutability": "nonpayable"
        },
        {
            "type": "function",
            "name": "createEvent",
            "inputs": [
                {
                    "name": "_eventName",
                    "type": "string",
                    "internalType": "string"
                },
                {
                    "name": "_eventCardImgUrl",
                    "type": "string",
                    "internalType": "string"
                },
                {
                    "name": "_eventDetails",
                    "type": "string",
                    "internalType": "string"
                },
                {
                    "name": "_startDate",
                    "type": "uint64",
                    "internalType": "uint64"
                },
                {
                    "name": "_endDate",
                    "type": "uint64",
                    "internalType": "uint64"
                },
                {
                    "name": "_startTime",
                    "type": "uint64",
                    "internalType": "uint64"
                },
                {
                    "name": "_endTime",
                    "type": "uint64",
                    "internalType": "uint64"
                },
                {
                    "name": "_eventLocation",
                    "type": "string",
                    "internalType": "string"
                },
                {
                    "name": "_ticketPrice",
                    "type": "uint256",
                    "internalType": "uint256"
                },
                {
                    "name": "_minimumAge",
                    "type": "uint256",
                    "internalType": "uint256"
                },
                {
                    "name": "_maxCapacity",
                    "type": "uint256",
                    "internalType": "uint256"
                },
                {
                    "name": "_refundPolicy",
                    "type": "uint8",
                    "internalType": "enum EventChain.RefundPolicy"
                },
                {
                    "name": "_refundBufferHours",
                    "type": "uint256",
                    "internalType": "uint256"
                }
            ],
            "outputs": [],
            "stateMutability": "nonpayable"
        },
        {
            "type": "function",
            "name": "emergencyWithdrawFunds",
            "inputs": [
                {
                    "name": "_index",
                    "type": "uint256",
                    "internalType": "uint256"
                }
            ],
            "outputs": [],
            "stateMutability": "nonpayable"
        },
        {
            "type": "function",
            "name": "eventCount",
            "inputs": [],
            "outputs": [
                {
                    "name": "",
                    "type": "uint256",
                    "internalType": "uint256"
                }
            ],
            "stateMutability": "view"
        },
        {
            "type": "function",
            "name": "events",
            "inputs": [
                {
                    "name": "",
                    "type": "uint256",
                    "internalType": "uint256"
                }
            ],
            "outputs": [
                {
                    "name": "owner",
                    "type": "address",
                    "internalType": "address"
                },
                {
                    "name": "eventName",
                    "type": "string",
                    "internalType": "string"
                },
                {
                    "name": "eventCardImgUrl",
                    "type": "string",
                    "internalType": "string"
                },
                {
                    "name": "eventDetails",
                    "type": "string",
                    "internalType": "string"
                },
                {
                    "name": "startDate",
                    "type": "uint64",
                    "internalType": "uint64"
                },
                {
                    "name": "endDate",
                    "type": "uint64",
                    "internalType": "uint64"
                },
                {
                    "name": "startTime",
                    "type": "uint64",
                    "internalType": "uint64"
                },
                {
                    "name": "endTime",
                    "type": "uint64",
                    "internalType": "uint64"
                },
                {
                    "name": "eventLocation",
                    "type": "string",
                    "internalType": "string"
                },
                {
                    "name": "isActive",
                    "type": "bool",
                    "internalType": "bool"
                },
                {
                    "name": "ticketPrice",
                    "type": "uint256",
                    "internalType": "uint256"
                },
                {
                    "name": "fundsHeld",
                    "type": "uint256",
                    "internalType": "uint256"
                },
                {
                    "name": "minimumAge",
                    "type": "uint256",
                    "internalType": "uint256"
                },
                {
                    "name": "maxCapacity",
                    "type": "uint256",
                    "internalType": "uint256"
                },
                {
                    "name": "isCanceled",
                    "type": "bool",
                    "internalType": "bool"
                },
                {
                    "name": "fundsReleased",
                    "type": "bool",
                    "internalType": "bool"
                },
                {
                    "name": "exists",
                    "type": "bool",
                    "internalType": "bool"
                },
                {
                    "name": "refundPolicy",
                    "type": "uint8",
                    "internalType": "enum EventChain.RefundPolicy"
                },
                {
                    "name": "refundBufferHours",
                    "type": "uint256",
                    "internalType": "uint256"
                }
            ],
            "stateMutability": "view"
        },
        {
            "type": "function",
            "name": "getActiveEventsByCreator",
            "inputs": [],
            "outputs": [
                {
                    "name": "",
                    "type": "uint256[]",
                    "internalType": "uint256[]"
                },
                {
                    "name": "",
                    "type": "tuple[]",
                    "internalType": "struct EventChain.Event[]",
                    "components": [
                        {
                            "name": "owner",
                            "type": "address",
                            "internalType": "address"
                        },
                        {
                            "name": "eventName",
                            "type": "string",
                            "internalType": "string"
                        },
                        {
                            "name": "eventCardImgUrl",
                            "type": "string",
                            "internalType": "string"
                        },
                        {
                            "name": "eventDetails",
                            "type": "string",
                            "internalType": "string"
                        },
                        {
                            "name": "startDate",
                            "type": "uint64",
                            "internalType": "uint64"
                        },
                        {
                            "name": "endDate",
                            "type": "uint64",
                            "internalType": "uint64"
                        },
                        {
                            "name": "startTime",
                            "type": "uint64",
                            "internalType": "uint64"
                        },
                        {
                            "name": "endTime",
                            "type": "uint64",
                            "internalType": "uint64"
                        },
                        {
                            "name": "eventLocation",
                            "type": "string",
                            "internalType": "string"
                        },
                        {
                            "name": "isActive",
                            "type": "bool",
                            "internalType": "bool"
                        },
                        {
                            "name": "ticketPrice",
                            "type": "uint256",
                            "internalType": "uint256"
                        },
                        {
                            "name": "fundsHeld",
                            "type": "uint256",
                            "internalType": "uint256"
                        },
                        {
                            "name": "minimumAge",
                            "type": "uint256",
                            "internalType": "uint256"
                        },
                        {
                            "name": "maxCapacity",
                            "type": "uint256",
                            "internalType": "uint256"
                        },
                        {
                            "name": "isCanceled",
                            "type": "bool",
                            "internalType": "bool"
                        },
                        {
                            "name": "fundsReleased",
                            "type": "bool",
                            "internalType": "bool"
                        },
                        {
                            "name": "exists",
                            "type": "bool",
                            "internalType": "bool"
                        },
                        {
                            "name": "refundPolicy",
                            "type": "uint8",
                            "internalType": "enum EventChain.RefundPolicy"
                        },
                        {
                            "name": "refundBufferHours",
                            "type": "uint256",
                            "internalType": "uint256"
                        }
                    ]
                }
            ],
            "stateMutability": "view"
        },
        {
            "type": "function",
            "name": "getAllEvents",
            "inputs": [],
            "outputs": [
                {
                    "name": "",
                    "type": "uint256[]",
                    "internalType": "uint256[]"
                },
                {
                    "name": "",
                    "type": "tuple[]",
                    "internalType": "struct EventChain.Event[]",
                    "components": [
                        {
                            "name": "owner",
                            "type": "address",
                            "internalType": "address"
                        },
                        {
                            "name": "eventName",
                            "type": "string",
                            "internalType": "string"
                        },
                        {
                            "name": "eventCardImgUrl",
                            "type": "string",
                            "internalType": "string"
                        },
                        {
                            "name": "eventDetails",
                            "type": "string",
                            "internalType": "string"
                        },
                        {
                            "name": "startDate",
                            "type": "uint64",
                            "internalType": "uint64"
                        },
                        {
                            "name": "endDate",
                            "type": "uint64",
                            "internalType": "uint64"
                        },
                        {
                            "name": "startTime",
                            "type": "uint64",
                            "internalType": "uint64"
                        },
                        {
                            "name": "endTime",
                            "type": "uint64",
                            "internalType": "uint64"
                        },
                        {
                            "name": "eventLocation",
                            "type": "string",
                            "internalType": "string"
                        },
                        {
                            "name": "isActive",
                            "type": "bool",
                            "internalType": "bool"
                        },
                        {
                            "name": "ticketPrice",
                            "type": "uint256",
                            "internalType": "uint256"
                        },
                        {
                            "name": "fundsHeld",
                            "type": "uint256",
                            "internalType": "uint256"
                        },
                        {
                            "name": "minimumAge",
                            "type": "uint256",
                            "internalType": "uint256"
                        },
                        {
                            "name": "maxCapacity",
                            "type": "uint256",
                            "internalType": "uint256"
                        },
                        {
                            "name": "isCanceled",
                            "type": "bool",
                            "internalType": "bool"
                        },
                        {
                            "name": "fundsReleased",
                            "type": "bool",
                            "internalType": "bool"
                        },
                        {
                            "name": "exists",
                            "type": "bool",
                            "internalType": "bool"
                        },
                        {
                            "name": "refundPolicy",
                            "type": "uint8",
                            "internalType": "enum EventChain.RefundPolicy"
                        },
                        {
                            "name": "refundBufferHours",
                            "type": "uint256",
                            "internalType": "uint256"
                        }
                    ]
                }
            ],
            "stateMutability": "view"
        },
        {
            "type": "function",
            "name": "getAttendees",
            "inputs": [
                {
                    "name": "_index",
                    "type": "uint256",
                    "internalType": "uint256"
                }
            ],
            "outputs": [
                {
                    "name": "",
                    "type": "address[]",
                    "internalType": "address[]"
                }
            ],
            "stateMutability": "view"
        },
        {
            "type": "function",
            "name": "getEventById",
            "inputs": [
                {
                    "name": "_index",
                    "type": "uint256",
                    "internalType": "uint256"
                }
            ],
            "outputs": [
                {
                    "name": "",
                    "type": "tuple",
                    "internalType": "struct EventChain.Event",
                    "components": [
                        {
                            "name": "owner",
                            "type": "address",
                            "internalType": "address"
                        },
                        {
                            "name": "eventName",
                            "type": "string",
                            "internalType": "string"
                        },
                        {
                            "name": "eventCardImgUrl",
                            "type": "string",
                            "internalType": "string"
                        },
                        {
                            "name": "eventDetails",
                            "type": "string",
                            "internalType": "string"
                        },
                        {
                            "name": "startDate",
                            "type": "uint64",
                            "internalType": "uint64"
                        },
                        {
                            "name": "endDate",
                            "type": "uint64",
                            "internalType": "uint64"
                        },
                        {
                            "name": "startTime",
                            "type": "uint64",
                            "internalType": "uint64"
                        },
                        {
                            "name": "endTime",
                            "type": "uint64",
                            "internalType": "uint64"
                        },
                        {
                            "name": "eventLocation",
                            "type": "string",
                            "internalType": "string"
                        },
                        {
                            "name": "isActive",
                            "type": "bool",
                            "internalType": "bool"
                        },
                        {
                            "name": "ticketPrice",
                            "type": "uint256",
                            "internalType": "uint256"
                        },
                        {
                            "name": "fundsHeld",
                            "type": "uint256",
                            "internalType": "uint256"
                        },
                        {
                            "name": "minimumAge",
                            "type": "uint256",
                            "internalType": "uint256"
                        },
                        {
                            "name": "maxCapacity",
                            "type": "uint256",
                            "internalType": "uint256"
                        },
                        {
                            "name": "isCanceled",
                            "type": "bool",
                            "internalType": "bool"
                        },
                        {
                            "name": "fundsReleased",
                            "type": "bool",
                            "internalType": "bool"
                        },
                        {
                            "name": "exists",
                            "type": "bool",
                            "internalType": "bool"
                        },
                        {
                            "name": "refundPolicy",
                            "type": "uint8",
                            "internalType": "enum EventChain.RefundPolicy"
                        },
                        {
                            "name": "refundBufferHours",
                            "type": "uint256",
                            "internalType": "uint256"
                        }
                    ]
                },
                {
                    "name": "",
                    "type": "address[]",
                    "internalType": "address[]"
                }
            ],
            "stateMutability": "view"
        },
        {
            "type": "function",
            "name": "getEventIdsByCreator",
            "inputs": [
                {
                    "name": "_creator",
                    "type": "address",
                    "internalType": "address"
                }
            ],
            "outputs": [
                {
                    "name": "",
                    "type": "uint256[]",
                    "internalType": "uint256[]"
                }
            ],
            "stateMutability": "view"
        },
        {
            "type": "function",
            "name": "getEventLength",
            "inputs": [],
            "outputs": [
                {
                    "name": "",
                    "type": "uint256",
                    "internalType": "uint256"
                }
            ],
            "stateMutability": "view"
        },
        {
            "type": "function",
            "name": "getEventsByCreator",
            "inputs": [
                {
                    "name": "_creator",
                    "type": "address",
                    "internalType": "address"
                }
            ],
            "outputs": [
                {
                    "name": "",
                    "type": "tuple[]",
                    "internalType": "struct EventChain.Event[]",
                    "components": [
                        {
                            "name": "owner",
                            "type": "address",
                            "internalType": "address"
                        },
                        {
                            "name": "eventName",
                            "type": "string",
                            "internalType": "string"
                        },
                        {
                            "name": "eventCardImgUrl",
                            "type": "string",
                            "internalType": "string"
                        },
                        {
                            "name": "eventDetails",
                            "type": "string",
                            "internalType": "string"
                        },
                        {
                            "name": "startDate",
                            "type": "uint64",
                            "internalType": "uint64"
                        },
                        {
                            "name": "endDate",
                            "type": "uint64",
                            "internalType": "uint64"
                        },
                        {
                            "name": "startTime",
                            "type": "uint64",
                            "internalType": "uint64"
                        },
                        {
                            "name": "endTime",
                            "type": "uint64",
                            "internalType": "uint64"
                        },
                        {
                            "name": "eventLocation",
                            "type": "string",
                            "internalType": "string"
                        },
                        {
                            "name": "isActive",
                            "type": "bool",
                            "internalType": "bool"
                        },
                        {
                            "name": "ticketPrice",
                            "type": "uint256",
                            "internalType": "uint256"
                        },
                        {
                            "name": "fundsHeld",
                            "type": "uint256",
                            "internalType": "uint256"
                        },
                        {
                            "name": "minimumAge",
                            "type": "uint256",
                            "internalType": "uint256"
                        },
                        {
                            "name": "maxCapacity",
                            "type": "uint256",
                            "internalType": "uint256"
                        },
                        {
                            "name": "isCanceled",
                            "type": "bool",
                            "internalType": "bool"
                        },
                        {
                            "name": "fundsReleased",
                            "type": "bool",
                            "internalType": "bool"
                        },
                        {
                            "name": "exists",
                            "type": "bool",
                            "internalType": "bool"
                        },
                        {
                            "name": "refundPolicy",
                            "type": "uint8",
                            "internalType": "enum EventChain.RefundPolicy"
                        },
                        {
                            "name": "refundBufferHours",
                            "type": "uint256",
                            "internalType": "uint256"
                        }
                    ]
                }
            ],
            "stateMutability": "view"
        },
        {
            "type": "function",
            "name": "getPendingWithdrawal",
            "inputs": [
                {
                    "name": "_user",
                    "type": "address",
                    "internalType": "address"
                }
            ],
            "outputs": [
                {
                    "name": "",
                    "type": "uint256",
                    "internalType": "uint256"
                }
            ],
            "stateMutability": "view"
        },
        {
            "type": "function",
            "name": "getUserEvents",
            "inputs": [],
            "outputs": [
                {
                    "name": "",
                    "type": "uint256[]",
                    "internalType": "uint256[]"
                },
                {
                    "name": "",
                    "type": "tuple[]",
                    "internalType": "struct EventChain.Event[]",
                    "components": [
                        {
                            "name": "owner",
                            "type": "address",
                            "internalType": "address"
                        },
                        {
                            "name": "eventName",
                            "type": "string",
                            "internalType": "string"
                        },
                        {
                            "name": "eventCardImgUrl",
                            "type": "string",
                            "internalType": "string"
                        },
                        {
                            "name": "eventDetails",
                            "type": "string",
                            "internalType": "string"
                        },
                        {
                            "name": "startDate",
                            "type": "uint64",
                            "internalType": "uint64"
                        },
                        {
                            "name": "endDate",
                            "type": "uint64",
                            "internalType": "uint64"
                        },
                        {
                            "name": "startTime",
                            "type": "uint64",
                            "internalType": "uint64"
                        },
                        {
                            "name": "endTime",
                            "type": "uint64",
                            "internalType": "uint64"
                        },
                        {
                            "name": "eventLocation",
                            "type": "string",
                            "internalType": "string"
                        },
                        {
                            "name": "isActive",
                            "type": "bool",
                            "internalType": "bool"
                        },
                        {
                            "name": "ticketPrice",
                            "type": "uint256",
                            "internalType": "uint256"
                        },
                        {
                            "name": "fundsHeld",
                            "type": "uint256",
                            "internalType": "uint256"
                        },
                        {
                            "name": "minimumAge",
                            "type": "uint256",
                            "internalType": "uint256"
                        },
                        {
                            "name": "maxCapacity",
                            "type": "uint256",
                            "internalType": "uint256"
                        },
                        {
                            "name": "isCanceled",
                            "type": "bool",
                            "internalType": "bool"
                        },
                        {
                            "name": "fundsReleased",
                            "type": "bool",
                            "internalType": "bool"
                        },
                        {
                            "name": "exists",
                            "type": "bool",
                            "internalType": "bool"
                        },
                        {
                            "name": "refundPolicy",
                            "type": "uint8",
                            "internalType": "enum EventChain.RefundPolicy"
                        },
                        {
                            "name": "refundBufferHours",
                            "type": "uint256",
                            "internalType": "uint256"
                        }
                    ]
                }
            ],
            "stateMutability": "view"
        },
        {
            "type": "function",
            "name": "hasPurchasedTicket",
            "inputs": [
                {
                    "name": "",
                    "type": "uint256",
                    "internalType": "uint256"
                },
                {
                    "name": "",
                    "type": "address",
                    "internalType": "address"
                }
            ],
            "outputs": [
                {
                    "name": "",
                    "type": "bool",
                    "internalType": "bool"
                }
            ],
            "stateMutability": "view"
        },
        {
            "type": "function",
            "name": "isAttendee",
            "inputs": [
                {
                    "name": "",
                    "type": "uint256",
                    "internalType": "uint256"
                },
                {
                    "name": "",
                    "type": "address",
                    "internalType": "address"
                }
            ],
            "outputs": [
                {
                    "name": "",
                    "type": "bool",
                    "internalType": "bool"
                }
            ],
            "stateMutability": "view"
        },
        {
            "type": "function",
            "name": "owner",
            "inputs": [],
            "outputs": [
                {
                    "name": "",
                    "type": "address",
                    "internalType": "address"
                }
            ],
            "stateMutability": "view"
        },
        {
            "type": "function",
            "name": "paused",
            "inputs": [],
            "outputs": [
                {
                    "name": "",
                    "type": "bool",
                    "internalType": "bool"
                }
            ],
            "stateMutability": "view"
        },
        {
            "type": "function",
            "name": "pendingWithdrawals",
            "inputs": [
                {
                    "name": "",
                    "type": "address",
                    "internalType": "address"
                }
            ],
            "outputs": [
                {
                    "name": "",
                    "type": "uint256",
                    "internalType": "uint256"
                }
            ],
            "stateMutability": "view"
        },
        {
            "type": "function",
            "name": "releaseFunds",
            "inputs": [
                {
                    "name": "_index",
                    "type": "uint256",
                    "internalType": "uint256"
                }
            ],
            "outputs": [],
            "stateMutability": "nonpayable"
        },
        {
            "type": "function",
            "name": "renounceOwnership",
            "inputs": [],
            "outputs": [],
            "stateMutability": "nonpayable"
        },
        {
            "type": "function",
            "name": "requestRefund",
            "inputs": [
                {
                    "name": "_index",
                    "type": "uint256",
                    "internalType": "uint256"
                }
            ],
            "outputs": [],
            "stateMutability": "nonpayable"
        },
        {
            "type": "function",
            "name": "togglePause",
            "inputs": [],
            "outputs": [],
            "stateMutability": "nonpayable"
        },
        {
            "type": "function",
            "name": "transferOwnership",
            "inputs": [
                {
                    "name": "newOwner",
                    "type": "address",
                    "internalType": "address"
                }
            ],
            "outputs": [],
            "stateMutability": "nonpayable"
        },
        {
            "type": "function",
            "name": "transferTicket",
            "inputs": [
                {
                    "name": "_index",
                    "type": "uint256",
                    "internalType": "uint256"
                },
                {
                    "name": "_to",
                    "type": "address",
                    "internalType": "address"
                }
            ],
            "outputs": [],
            "stateMutability": "nonpayable"
        },
        {
            "type": "function",
            "name": "updateEvent",
            "inputs": [
                {
                    "name": "_index",
                    "type": "uint256",
                    "internalType": "uint256"
                },
                {
                    "name": "_eventName",
                    "type": "string",
                    "internalType": "string"
                },
                {
                    "name": "_eventCardImgUrl",
                    "type": "string",
                    "internalType": "string"
                },
                {
                    "name": "_eventDetails",
                    "type": "string",
                    "internalType": "string"
                },
                {
                    "name": "_eventLocation",
                    "type": "string",
                    "internalType": "string"
                },
                {
                    "name": "_ticketPrice",
                    "type": "uint256",
                    "internalType": "uint256"
                },
                {
                    "name": "_maxCapacity",
                    "type": "uint256",
                    "internalType": "uint256"
                },
                {
                    "name": "_refundPolicy",
                    "type": "uint8",
                    "internalType": "enum EventChain.RefundPolicy"
                },
                {
                    "name": "_refundBufferHours",
                    "type": "uint256",
                    "internalType": "uint256"
                }
            ],
            "outputs": [],
            "stateMutability": "nonpayable"
        },
        {
            "type": "function",
            "name": "withdraw",
            "inputs": [],
            "outputs": [],
            "stateMutability": "nonpayable"
        },
        {
            "type": "event",
            "name": "EmergencyWithdrawal",
            "inputs": [
                {
                    "name": "eventId",
                    "type": "uint256",
                    "indexed": true,
                    "internalType": "uint256"
                },
                {
                    "name": "amount",
                    "type": "uint256",
                    "indexed": false,
                    "internalType": "uint256"
                }
            ],
            "anonymous": false
        },
        {
            "type": "event",
            "name": "EventCanceled",
            "inputs": [
                {
                    "name": "eventId",
                    "type": "uint256",
                    "indexed": true,
                    "internalType": "uint256"
                }
            ],
            "anonymous": false
        },
        {
            "type": "event",
            "name": "EventCreated",
            "inputs": [
                {
                    "name": "eventId",
                    "type": "uint256",
                    "indexed": true,
                    "internalType": "uint256"
                },
                {
                    "name": "owner",
                    "type": "address",
                    "indexed": true,
                    "internalType": "address"
                },
                {
                    "name": "eventName",
                    "type": "string",
                    "indexed": false,
                    "internalType": "string"
                }
            ],
            "anonymous": false
        },
        {
            "type": "event",
            "name": "EventUpdated",
            "inputs": [
                {
                    "name": "eventId",
                    "type": "uint256",
                    "indexed": true,
                    "internalType": "uint256"
                },
                {
                    "name": "owner",
                    "type": "address",
                    "indexed": true,
                    "internalType": "address"
                },
                {
                    "name": "eventName",
                    "type": "string",
                    "indexed": false,
                    "internalType": "string"
                }
            ],
            "anonymous": false
        },
        {
            "type": "event",
            "name": "FundsReleased",
            "inputs": [
                {
                    "name": "eventId",
                    "type": "uint256",
                    "indexed": true,
                    "internalType": "uint256"
                },
                {
                    "name": "amount",
                    "type": "uint256",
                    "indexed": false,
                    "internalType": "uint256"
                }
            ],
            "anonymous": false
        },
        {
            "type": "event",
            "name": "OwnershipTransferred",
            "inputs": [
                {
                    "name": "previousOwner",
                    "type": "address",
                    "indexed": true,
                    "internalType": "address"
                },
                {
                    "name": "newOwner",
                    "type": "address",
                    "indexed": true,
                    "internalType": "address"
                }
            ],
            "anonymous": false
        },
        {
            "type": "event",
            "name": "RefundIssued",
            "inputs": [
                {
                    "name": "eventId",
                    "type": "uint256",
                    "indexed": true,
                    "internalType": "uint256"
                },
                {
                    "name": "user",
                    "type": "address",
                    "indexed": true,
                    "internalType": "address"
                },
                {
                    "name": "amount",
                    "type": "uint256",
                    "indexed": false,
                    "internalType": "uint256"
                }
            ],
            "anonymous": false
        },
        {
            "type": "event",
            "name": "TicketPurchased",
            "inputs": [
                {
                    "name": "eventId",
                    "type": "uint256",
                    "indexed": true,
                    "internalType": "uint256"
                },
                {
                    "name": "buyer",
                    "type": "address",
                    "indexed": true,
                    "internalType": "address"
                },
                {
                    "name": "amount",
                    "type": "uint256",
                    "indexed": false,
                    "internalType": "uint256"
                }
            ],
            "anonymous": false
        },
        {
            "type": "event",
            "name": "TicketTransferred",
            "inputs": [
                {
                    "name": "eventId",
                    "type": "uint256",
                    "indexed": true,
                    "internalType": "uint256"
                },
                {
                    "name": "from",
                    "type": "address",
                    "indexed": true,
                    "internalType": "address"
                },
                {
                    "name": "to",
                    "type": "address",
                    "indexed": true,
                    "internalType": "address"
                }
            ],
            "anonymous": false
        },
        {
            "type": "event",
            "name": "WithdrawalReady",
            "inputs": [
                {
                    "name": "user",
                    "type": "address",
                    "indexed": true,
                    "internalType": "address"
                },
                {
                    "name": "amount",
                    "type": "uint256",
                    "indexed": false,
                    "internalType": "uint256"
                }
            ],
            "anonymous": false
        },
        {
            "type": "error",
            "name": "OwnableInvalidOwner",
            "inputs": [
                {
                    "name": "owner",
                    "type": "address",
                    "internalType": "address"
                }
            ]
        },
        {
            "type": "error",
            "name": "OwnableUnauthorizedAccount",
            "inputs": [
                {
                    "name": "account",
                    "type": "address",
                    "internalType": "address"
                }
            ]
        },
        {
            "type": "error",
            "name": "ReentrancyGuardReentrantCall",
            "inputs": []
        }
    ],
    "bytecode": {
        "object": "0x6080806040523460955760017f9b779b17422d0df92223018b32b4d1fa46e071723d6817e2486d003becc55f005533156082575f8054336001600160a01b0319821681178355916001600160a01b03909116907f8be0079c531659141344cd1fd0a4f28419497f9722a3daafe3b4186f6b6457e09080a3613ba4908161009a8239f35b631e4fbdf760e01b5f525f60045260245ffd5b5f80fdfe60806040526004361015610018575b36613a8c57613a8c565b5f3560e01c80630b79143014612c9a5780630dcaeaf214610f6b5780630f97756114612b8f5780631ac7896914612b735780631bf23cde14612b2a5780632002058114612a4e5780633a5ddf3014612a315780633ccfd60b146129545780633f69babd146128235780634256cae614612808578063439fd35f146127bf5780634d68282f146125d357806350d9c62d146125b75780635c975abb146125935780635c98dfa114611ec757806360eaa6a514612575578063679ebf1a1461223f57806367dd74ca14611f3b578063715018a614611ee457806371be2e4a14611ec7578063775e1e5e14611e415780637ee8b2f8146101d55780638607498514611e265780638da5cb5b14611dff57806395a16d9114611dd5578063a28e7a9d1461140b578063a4b2409e14610f70578063abf45ec814610f6b578063b5e4128714610f47578063b98079bc14610eba578063c27a500d14610dc1578063c2f1cac014610da4578063c4ae316814610d6a578063cb71146e14610d4f578063ccfd6d3c14610bdb578063d8ff1816146104b1578063e0c143771461041c578063eb7e4d4414610296578063f2fde38b146102115763f3f437030361000e575b3461020d57602036600319011261020d576001600160a01b036101f661318c565b165f526009602052602060405f2054604051908152f35b5f80fd5b3461020d57602036600319011261020d5761022a61318c565b610232613b08565b6001600160a01b03168015610283575f80546001600160a01b03198116831782556001600160a01b0316907f8be0079c531659141344cd1fd0a4f28419497f9722a3daafe3b4186f6b6457e09080a3005b631e4fbdf760e01b5f525f60045260245ffd5b3461020d57602036600319011261020d576004356102b2613b08565b6102ba613ad0565b805f52600160205260405f2090600b82018054926102dd60ff8560101c166135fa565b6001600160401b03600482015460401c166276a7008101809111610408574211156103b8575f516020613b2f5f395f51905f529260209261032460ff8760081c161561363d565b61010060088401965f88549861033b8a151561349c565b5561ff00191617905581546001600160a01b03165f90815260098452604090208054610368908790613682565b90557f99010623e00d801536d5e2da7de373bda9592873b6d101d65738aa2582e6452283604051878152a2546040519384526001600160a01b031692a260015f516020613b4f5f395f51905f5255005b60405162461bcd60e51b815260206004820152602260248201527f456d657267656e6379207769746864726177616c2064656c6179206e6f74206d604482015261195d60f21b6064820152608490fd5b634e487b7160e01b5f52601160045260245ffd5b3461020d57602036600319011261020d57600435805f52600160205260ff600b60405f20015460101c1615610479575f52600460205261047561046160405f20613a3b565b6040519182916020835260208301906131cf565b0390f35b60405162461bcd60e51b815260206004820152601060248201526f125b9d985b1a5908195d995b9d08125160821b6044820152606490fd5b3461020d5761012036600319011261020d576024356001600160401b03811161020d576104e29036906004016131a2565b906044356001600160401b03811161020d576105029036906004016131a2565b906064356001600160401b03811161020d576105229036906004016131a2565b906084356001600160401b03811161020d576105429036906004016131a2565b92909360a4359560c43596600360e435101561020d576004355f52600160205261057960018060a01b0360405f20541633146134fa565b6004355f52600160205261059960ff600b60405f20015460101c16613538565b6004355f908152600160205260409020546105be906001600160a01b0316151561357a565b6105cf60ff5f5460a01c16156135bc565b6004355f52600160205260405f20976105ee60ff60068b0154166136a4565b6001600160401b0360048a0154169182421015610b9e578b151580610b93575b610617906136e6565b83151580610b88575b61062990613728565b85151580610b7c575b61063b90613769565b87151580610b71575b61064d906137ae565b60078a0180548203610adc575b5050600a890180548203610a5a575b505061067a600260e435111561387c565b600260e43514610a01575b506001600160401b03891161089a576106ae896106a560018a0154612e24565b60018a016139a2565b5f89601f811160011461099757806106da925f9161098c575b508160011b915f199060031b1c19161790565b60018801555b60028701916001600160401b03821161089a57610707826107018554612e24565b856139a2565b5f90601f83116001146109285761073592915f918361091d575b50508160011b915f199060031b1c19161790565b90555b60038501916001600160401b03821161089a57610759826107018554612e24565b5f90601f83116001146108b95761078692915f91836108ae5750508160011b915f199060031b1c19161790565b90555b60058301916001600160401b03821161089a576107aa826107018554612e24565b5f90601f8311600114610836576107d792915f918361082b5750508160011b915f199060031b1c19161790565b90555b6107e960e435600b83016139f1565b600c610104359101557fdc95c3f54791d672d64eda50093741a6fbfcd4ef21c1c646655be46fc63b930d6040518061082633956004359583613a14565b0390a3005b013590508780610721565b601f19831691845f5260205f20925f5b8181106108825750908460019594939210610869575b505050811b0190556107da565b01355f19600384901b60f8161c1916905586808061085c565b91936020600181928787013581550195019201610846565b634e487b7160e01b5f52604160045260245ffd5b013590508980610721565b601f19831691845f5260205f20925f5b81811061090557509084600195949392106108ec575b505050811b019055610789565b01355f19600384901b60f8161c191690558880806108df565b919360206001819287870135815501950192016108c9565b013590508b80610721565b601f19831691845f5260205f20925f5b818110610974575090846001959493921061095b575b505050811b019055610738565b01355f19600384901b60f8161c191690558a808061094e565b91936020600181928787013581550195019201610938565b90508a01358c6106c7565b50601f198a1690600189015f528a60205f20925f5b8c8282106109e7575050106109ce575b5050600189811b0160018801556106e0565b8901355f1960038c901b60f8161c1916905589806109bc565b84013585556001909401936020938401938e9350016109ac565b610a22610104351591821580610a4b575b610a1b906138c0565b4290613904565b610e10610104350291610104358304610e1014171561040857610a459110613911565b89610685565b506102d0610104351115610a12565b600182101580610acf575b610a6e9061383d565b6004355f52600560205260405f20548210610a8b57558a80610669565b606460405162461bcd60e51b815260206004820152602060248201527f43617061636974792062656c6f772063757272656e7420617474656e646565736044820152fd5b50620186a0821115610a65565b6004355f52600560205260405f2054610b1d5781151580610b09575b610b01906137fa565b558b8061065a565b5069d3c21bcecceda1000000821115610af8565b60405162461bcd60e51b815260206004820152602660248201527f43616e6e6f74206368616e6765207072696365206166746572207469636b65746044820152651cc81cdbdb1960d21b6064820152608490fd5b506096881115610644565b506103e8861115610632565b5060c8841115610620565b5060648c111561060e565b60405162461bcd60e51b8152602060048201526015602482015274115d995b9d08185b1c9958591e481cdd185c9d1959605a1b6044820152606490fd5b3461020d575f36600319011261020d576002545f805b828110610cd65750610c0b610c0582613230565b916132ee565b915f5f5b828110610c28575050506104756040519283928361314e565b805f52600160205260ff600b60405f20015460101c1680610cb9575b80610ca0575b610c57575b600101610c0f565b90610c988183610c696001948861333d565b52835f5282602052610c7d60405f20613371565b610c87828961333d565b52610c92818861333d565b5061320b565b919050610c4f565b50805f52600160205260ff600660405f20015416610c4a565b50805f52600160205260018060a01b0360405f2054163314610c44565b805f52600160205260ff600b60405f20015460101c1680610d32575b80610d19575b610d05575b600101610bf1565b90610d1160019161320b565b919050610cfd565b50805f52600160205260ff600660405f20015416610cf8565b50805f52600160205260018060a01b0360405f2054163314610cf2565b3461020d575f36600319011261020d57602060405160c88152f35b3461020d575f36600319011261020d57610d82613b08565b5f805460ff60a01b19811660a091821c60ff161590911b60ff60a01b16179055005b3461020d575f36600319011261020d5760206040516276a7008152f35b3461020d575f36600319011261020d576002545f805b828110610e645750610deb610c0582613230565b915f5f5b828110610e08575050506104756040519283928361314e565b805f52600160205260ff600b60405f20015460101c1680610e4b575b610e31575b600101610def565b90610e438183610c696001948861333d565b919050610e29565b50805f52600160205260ff600660405f20015416610e24565b805f52600160205260ff600b60405f20015460101c1680610ea1575b610e8d575b600101610dd7565b90610e9960019161320b565b919050610e85565b50805f52600160205260ff600660405f20015416610e80565b3461020d57602036600319011261020d57610f39600435610ed9613262565b50805f526001602052610ef860ff600b60405f20015460101c166135fa565b805f52600160205260405f20905f526004602052610475610f25610f1f60405f2093613371565b92613a3b565b604051938493604085526040850190612fb8565b9083820360208501526131cf565b3461020d575f36600319011261020d57602060405169d3c21bcecceda10000008152f35b612f6a565b3461020d57602036600319011261020d57600435610f8c613ad0565b805f526001602052610faa60ff600b60405f20015460101c16613538565b5f81815260016020526040902054610fcc906001600160a01b0316151561357a565b610fdd60ff5f5460a01c16156135bc565b5f81815260076020908152604080832033845290915290205460ff16156113d057805f52600160205260405f209060078201549160088101908382541061138b57600b81015460ff811615611218575b50505f82815260076020908152604080832033808552908352818420805460ff1990811690915586855260038452828520918552925290912080549091169055805461107a908490613904565b9055805f52600560205260405f2080548015610408575f19019055805f52600460205260405f20815f52600860205260405f2060018060a01b0333165f5260205260405f205481545f198101908111610408578082036111a4575b505080548015611190575f1901906110ed828261368f565b81546001600160a01b0360039290921b9190911b19169055555f8181526008602090815260408083203384528252808320839055600990915290208054611135908490613682565b9055604051908282527f7a482fdeb6bc9a1376f597068a214a7a39472bb2eff1b8cad21ba04f49ddca1b60203393a36040519081525f516020613b2f5f395f51905f5260203392a260015f516020613b4f5f395f51905f5255005b634e487b7160e01b5f52603160045260245ffd5b6111ae908361368f565b905460039190911b1c6001600160a01b03166111f2816111ce848661368f565b81546001600160a01b0393841660039290921b91821b9390911b1916919091179055565b835f52600860205260405f209060018060a01b03165f5260205260405f205583806110d5565b60181c60ff166003811015611377578061127c5760405162461bcd60e51b815260206004820152602260248201527f526566756e6473206e6f7420616c6c6f77656420666f722074686973206576656044820152611b9d60f21b6064820152608490fd5b600181036112e65750600401546001600160401b03164210156112a1575b838061102d565b60405162461bcd60e51b815260206004820152601760248201527f526566756e6420706572696f642068617320656e6465640000000000000000006044820152606490fd5b6002146112f4575b5061129a565b600c6001600160401b03600483015416910154610e10810290808204610e1014901517156104085761132591613904565b42101561133257836112ee565b60405162461bcd60e51b815260206004820152601e60248201527f526566756e642062756666657220706572696f642068617320656e64656400006044820152606490fd5b634e487b7160e01b5f52602160045260245ffd5b60405162461bcd60e51b815260206004820152601e60248201527f496e73756666696369656e742066756e647320696e20636f6e747261637400006044820152606490fd5b60405162461bcd60e51b8152602060048201526013602482015272139bc81d1a58dad95d081c1d5c98da185cd959606a1b6044820152606490fd5b3461020d576101a036600319011261020d576004356001600160401b03811161020d5761143c9036906004016131a2565b6024356001600160401b03811161020d5761145b9036906004016131a2565b6044929192356001600160401b03811161020d5761147d9036906004016131a2565b906064356001600160401b038116810361020d576084356001600160401b038116810361020d5760a435906001600160401b038216820361020d5760c435926001600160401b038416840361020d5760e4356001600160401b03811161020d576114eb9036906004016131a2565b959096600361016435101561020d5761150b60ff5f5460a01c16156135bc565b89151580611dca575b61151d906136e6565b88151580611dbf575b61152f90613728565b80151580611db3575b61154190613769565b86151580611da8575b611553906137ae565b61010435151580611d91575b611568906137fa565b426001600160401b03841610611d4c57610e106001600160401b03841601806001600160401b03851611610408576001600160401b03851610611d07576301e133806001600160401b03841601806001600160401b03851611610408576001600160401b03851611611cc25760966101243511611c8757600161014435101580611c77575b6115f69061383d565b611606600261016435111561387c565b60026101643514611c17575b6002549a604051996116238b612e5c565b338b528d8c36906116339261396c565b60208c015236906116439261396c565b60408a015236906116539261396c565b60608801526001600160401b031660808701526001600160401b031660a08601526001600160401b031660c08501526001600160401b031660e0840152369061169b9261396c565b61010082015260016101208201819052610104356101408301525f610160830181905261012435610180840152610144356101a08401526101c083018190526101e08301526102008201526116f7610164356102208301613365565b61018435610240820152825f52600160205260405f2090600160a01b600190038151166bffffffffffffffffffffffff60a01b83541617825560208101518051906001600160401b03821161089a57611760826117576001870154612e24565b600187016139a2565b602090601f8311600114611baa5761178e92915f9183611ac55750508160011b915f199060031b1c19161790565b60018301555b60408101518051906001600160401b03821161089a576117c4826117bb6002870154612e24565b600287016139a2565b602090601f8311600114611b3d576117f292915f9183611ac55750508160011b915f199060031b1c19161790565b60028301555b60608101518051906001600160401b03821161089a576118288261181f6003870154612e24565b600387016139a2565b602090601f8311600114611ad05761185692915f9183611ac55750508160011b915f199060031b1c19161790565b60038301555b60808181015160a083015160c08085015160e086015160409390931b6fffffffffffffffff0000000000000000166001600160401b0394851617941b67ffffffffffffffff60801b1693909317921b6001600160c01b03191691909117600484015561010082015180516005850192909190821161089a576118e2826107018554612e24565b602090601f8311600114611a625761191092915f9183611a575750508160011b915f199060031b1c19161790565b90555b6119336101208201511515600684019060ff801983541691151516179055565b6101408101516007830155610160810151600883015561018081015160098301556101a0810151600a830155600b8201906119816101c08201511515839060ff801983541691151516179055565b6101e0810151825461020083015162ffff001990911691151560081b61ff00169190911790151560101b62ff000016178255610220810151906003821015611377576119d261024092600c946139f1565b0151910155335f52600660205260405f2090815490600160401b82101561089a57611a27827ffc695dea2478fb938a11068aeedddd7046a5fe655f136e30a325d353fe187a459460016108269501815561368f565b81549060031b9086821b915f19901b1916179055611a4660025461320b565b600255604051918291339683613a14565b015190508980610721565b90601f19831691845f52815f20925f5b818110611aad5750908460019594939210611a95575b505050811b019055611913565b01515f1960f88460031b161c19169055888080611a88565b92936020600181928786015181550195019301611a72565b015190508880610721565b9190600385015f52805f20905f935b601f1984168510611b22576001945083601f19811610611b0a575b505050811b01600383015561185c565b01515f1960f88460031b161c19169055878080611afa565b81810151835560209485019460019093019290910190611adf565b9190600285015f52805f20905f935b601f1984168510611b8f576001945083601f19811610611b77575b505050811b0160028301556117f8565b01515f1960f88460031b161c19169055878080611b67565b81810151835560209485019460019093019290910190611b4c565b9190600185015f52805f20905f935b601f1984168510611bfc576001945083601f19811610611be4575b505050811b016001830155611794565b01515f1960f88460031b161c19169055878080611bd4565b81810151835560209485019460019093019290910190611bb9565b6101843515801580611c68575b611c2d906138c0565b611c40426001600160401b038616613904565b610e10610184350291610184358304610e1014171561040857611c639110613911565b611612565b506102d0610184351115611c24565b50620186a06101443511156115ed565b60405162461bcd60e51b8152602060048201526013602482015272496e76616c6964206d696e696d756d2061676560681b6044820152606490fd5b60405162461bcd60e51b815260206004820152601760248201527f4576656e74206475726174696f6e20746f6f206c6f6e670000000000000000006044820152606490fd5b60405162461bcd60e51b815260206004820152601860248201527f4576656e74206475726174696f6e20746f6f2073686f727400000000000000006044820152606490fd5b60405162461bcd60e51b815260206004820152601c60248201527f53746172742064617465206d75737420626520696e20667574757265000000006044820152606490fd5b5069d3c21bcecceda100000061010435111561155f565b50609687111561154a565b506103e8811115611538565b5060c8891115611526565b5060648a1115611514565b3461020d57602036600319011261020d576004355f526005602052602060405f2054604051908152f35b3461020d575f36600319011261020d575f546040516001600160a01b039091168152602090f35b3461020d575f36600319011261020d57602060405160648152f35b3461020d57602036600319011261020d576001600160a01b03611e6261318c565b165f52600660205260405f206040519081602082549182815201915f5260205f20905f5b818110611eb15761047585611e9d81870382612e78565b604051918291602083526020830190612f85565b8254845260209093019260019283019201611e86565b3461020d575f36600319011261020d576020600254604051908152f35b3461020d575f36600319011261020d57611efc613b08565b5f80546001600160a01b0319811682556001600160a01b03167f8be0079c531659141344cd1fd0a4f28419497f9722a3daafe3b4186f6b6457e08280a3005b602036600319011261020d57600435611f52613ad0565b805f526001602052611f7060ff600b60405f20015460101c16613538565b5f81815260016020526040902054611f92906001600160a01b0316151561357a565b611fa360ff5f5460a01c16156135bc565b805f52600160205260405f206001600160401b036004820154164210156121fa57611fd460ff6006830154166136a4565b5f82815260076020908152604080832033845290915290205460ff166121b557815f52600560205260405f2054600a8201541115612170576007810154340361212b575f828152600760209081526040808320338085529083528184208054600160ff19918216811790925587865260038552838620838752855283862080549091169091179055858452600480845282852080546008865284872093875292855292852082905593869052929091529190600160401b81101561089a576120a78160089460016120c59401815561368f565b81546001600160a01b0360039290921b91821b19163390911b179055565b825f52600560205260405f206120db815461320b565b9055016120e9348254613682565b9055604051903482527fdbaaf4c87ce30816c961a81d110622a3227ede77953d4383d514ff88ab2e0fd360203393a360015f516020613b4f5f395f51905f5255005b60405162461bcd60e51b815260206004820152601860248201527f496e636f7272656374207061796d656e7420616d6f756e7400000000000000006044820152606490fd5b60405162461bcd60e51b815260206004820152601960248201527f4576656e74206174206d6178696d756d206361706163697479000000000000006044820152606490fd5b60405162461bcd60e51b815260206004820152601860248201527f5469636b657420616c72656164792070757263686173656400000000000000006044820152606490fd5b60405162461bcd60e51b815260206004820152601c60248201527f4576656e74206861732073746172746564206f722065787069726564000000006044820152606490fd5b3461020d57604036600319011261020d5760043561225b613176565b90612264613ad0565b805f52600160205261228260ff600b60405f20015460101c16613538565b5f818152600160205260409020546122a4906001600160a01b0316151561357a565b6122b560ff5f5460a01c16156135bc565b5f81815260076020908152604080832033845290915290205460ff1615612538576001600160a01b0382169182156124f3573383146124ae57815f52600760205260405f20835f5260205260ff60405f20541661246957815f5260016020526001600160401b03600460405f20015416421015612419575f82815260076020908152604080832033808552908352818420805460ff19908116909155878552828520805482166001908117909155878652600385528386208387528552838620805483169055888652838620805490921617905585845260088352818420908452825280832054858452600490925290912090916123b8916111ce90849061368f565b5f82815260086020908152604080832086845290915280822092909255338082529181208190559091907fd15524263ae66f75c1e604c47db6085085110f23ef7322b355179ac5e3b0783a9080a460015f516020613b4f5f395f51905f5255005b60405162461bcd60e51b815260206004820152602260248201527f43616e6e6f74207472616e73666572206166746572206576656e742073746172604482015261747360f01b6064820152608490fd5b60405162461bcd60e51b815260206004820152601c60248201527f526563697069656e7420616c726561647920686173207469636b6574000000006044820152606490fd5b60405162461bcd60e51b815260206004820152601b60248201527f43616e6e6f74207472616e7366657220746f20796f757273656c6600000000006044820152606490fd5b60405162461bcd60e51b815260206004820152601960248201527f496e76616c696420726563697069656e742061646472657373000000000000006044820152606490fd5b60405162461bcd60e51b81526020600482015260156024820152742737903a34b1b5b2ba103a37903a3930b739b332b960591b6044820152606490fd5b3461020d575f36600319011261020d5760206040516301e133808152f35b3461020d575f36600319011261020d57602060ff5f5460a01c166040519015158152f35b3461020d575f36600319011261020d5760206040516103e88152f35b3461020d57602036600319011261020d57600435805f52600160205261260660018060a01b0360405f20541633146134fa565b61260e613ad0565b805f52600160205260405f2090600b820180549261263160ff8560101c166135fa565b6001600160401b03600482015460401c1642111561277a5760ff84166127255760089061266360ff86841c161561363d565b0180549384156126ea575f610100925561ff001916179055335f52600960205260405f20612692838254613682565b90557f80230996023d69b50793fa73f1919127c9d8e741d3989743c479169f22e7a2886020604051848152a26040519081525f516020613b2f5f395f51905f5260203392a260015f516020613b4f5f395f51905f5255005b60405162461bcd60e51b81526020600482015260136024820152724e6f2066756e647320746f2072656c6561736560681b6044820152606490fd5b60405162461bcd60e51b815260206004820152602760248201527f43616e6e6f742072656c656173652066756e647320666f722063616e63656c656044820152661908195d995b9d60ca1b6064820152608490fd5b60405162461bcd60e51b815260206004820152601760248201527f4576656e7420686173206e6f7420656e646564207965740000000000000000006044820152606490fd5b3461020d57604036600319011261020d576127d8613176565b6004355f52600760205260405f209060018060a01b03165f52602052602060ff60405f2054166040519015158152f35b3461020d575f36600319011261020d57602060405160018152f35b3461020d57602036600319011261020d57600435805f52600160205261285660018060a01b0360405f20541633146134fa565b805f52600160205261287460ff600b60405f20015460101c16613538565b5f81815260016020526040902054612896906001600160a01b0316151561357a565b6128a760ff5f5460a01c16156135bc565b805f52600160205260ff600660405f200154161561291657805f526001602052600660405f200160ff198154169055805f526001602052600b60405f2001600160ff198254161790557fceaf11772900fe569752a0207c8639fb8228eb8663456dc9eaa3a08f927a87055f80a2005b60405162461bcd60e51b81526020600482015260166024820152754576656e7420616c726561647920696e61637469766560501b6044820152606490fd5b3461020d575f36600319011261020d5761296c613ad0565b335f52600960205260405f205461298481151561349c565b335f5260096020525f60408120555f80808084335af13d15612a2c573d6129aa816134df565b906129b86040519283612e78565b81525f60203d92013e5b156129f3576040519081525f516020613b2f5f395f51905f5260203392a260015f516020613b4f5f395f51905f5255005b60405162461bcd60e51b815260206004820152601160248201527015da5d1a191c985dd85b0819985a5b1959607a1b6044820152606490fd5b6129c2565b3461020d575f36600319011261020d576020604051620186a08152f35b3461020d57602036600319011261020d576001600160a01b03612a6f61318c565b165f52600660205260405f20604051808260208294549384815201905f5260205f20925f5b818110612b11575050612aa992500382612e78565b612ab381516132ee565b905f5b8151811015612afb5780612acc6001928461333d565b515f5281602052612adf60405f20613371565b612ae9828661333d565b52612af4818561333d565b5001612ab6565b60405160208082528190610475908201866130f6565b8454835260019485019486945060209093019201612a94565b3461020d57604036600319011261020d57612b43613176565b6004355f52600360205260405f209060018060a01b03165f52602052602060ff60405f2054166040519015158152f35b3461020d575f36600319011261020d576020604051610e108152f35b3461020d575f36600319011261020d576002545f805b828110612c3b5750612bb9610c0582613230565b915f5f5b828110612bd6575050506104756040519283928361314e565b805f52600160205260ff600b60405f20015460101c1680612c19575b612bff575b600101612bbd565b90612c118183610c696001948861333d565b919050612bf7565b505f81815260076020908152604080832033845290915290205460ff16612bf2565b805f52600160205260ff600b60405f20015460101c1680612c78575b612c64575b600101612ba5565b90612c7060019161320b565b919050612c5c565b505f81815260076020908152604080832033845290915290205460ff16612c57565b3461020d57602036600319011261020d576004355f52600160205260405f20600160a01b6001900381541660018201612cd290612e99565b91612cdf60028201612e99565b612ceb60038301612e99565b60048301549290612cfe60058301612e99565b93600683015460ff16946007840154600885015491600986015493600a87015495600b88015497600c0154986040519c8d9c8d5260208d0161026090526102608d01612d4991612f39565b8c810360408e0152612d5a91612f39565b8b810360608d0152612d6b91612f39565b906001600160401b03811660808c01528060401c6001600160401b031660a08c01528060801c6001600160401b031660c08c015260c01c60e08b01528981036101008b0152612db991612f39565b9615156101208901526101408801526101608701526101808601526101a085015260ff811615156101c08501528060081c60ff1615156101e08501528060101c60ff16151561020085015261022084019060181c60ff1690612e1a91612f5d565b6102408301520390f35b90600182811c92168015612e52575b6020831014612e3e57565b634e487b7160e01b5f52602260045260245ffd5b91607f1691612e33565b61026081019081106001600160401b0382111761089a57604052565b90601f801991011681019081106001600160401b0382111761089a57604052565b9060405191825f825492612eac84612e24565b8084529360018116908115612f175750600114612ed3575b50612ed192500383612e78565b565b90505f9291925260205f20905f915b818310612efb575050906020612ed1928201015f612ec4565b6020919350806001915483858901015201910190918492612ee2565b905060209250612ed194915060ff191682840152151560051b8201015f612ec4565b805180835260209291819084018484015e5f828201840152601f01601f1916010190565b9060038210156113775752565b3461020d575f36600319011261020d57602060405160968152f35b90602080835192838152019201905f5b818110612fa25750505090565b8251845260209384019390920191600101612f95565b9060018060a01b03825116815261024080613071613011612fff612fed60208801516102606020890152610260880190612f39565b60408801518782036040890152612f39565b60608701518682036060880152612f39565b6001600160401b0360808701511660808601526001600160401b0360a08701511660a08601526001600160401b0360c08701511660c08601526001600160401b0360e08701511660e0860152610100860151858203610100870152612f39565b9361012081015115156101208501526101408101516101408501526101608101516101608501526101808101516101808501526101a08101516101a08501526101c081015115156101c08501526101e081015115156101e085015261020081015115156102008501526130ee610220820151610220860190612f5d565b015191015290565b9080602083519182815201916020808360051b8301019401925f915b83831061312157505050505090565b909192939460208061313f600193601f198682030187528951612fb8565b97019301930191939290613112565b909161316561317393604084526040840190612f85565b9160208184039101526130f6565b90565b602435906001600160a01b038216820361020d57565b600435906001600160a01b038216820361020d57565b9181601f8401121561020d578235916001600160401b03831161020d576020838186019501011161020d57565b90602080835192838152019201905f5b8181106131ec5750505090565b82516001600160a01b03168452602093840193909201916001016131df565b5f1981146104085760010190565b6001600160401b03811161089a5760051b60200190565b9061323a82613219565b6132476040519182612e78565b8281528092613258601f1991613219565b0190602036910137565b6040519061326f82612e5c565b5f6102408382815260606020820152606060408201526060808201528260808201528260a08201528260c08201528260e0820152606061010082015282610120820152826101408201528261016082015282610180820152826101a0820152826101c0820152826101e082015282610200820152826102208201520152565b906132f882613219565b6133056040519182612e78565b8281528092613316601f1991613219565b01905f5b82811061332657505050565b602090613331613262565b8282850101520161331a565b80518210156133515760209160051b010190565b634e487b7160e01b5f52603260045260245ffd5b60038210156113775752565b9060405161337e81612e5c565b82546001600160a01b0316815291829061024090600c906133a160018201612e99565b60208501526133b260028201612e99565b60408501526133c360038201612e99565b606085015260048101546001600160401b03811660808601526001600160401b038160401c1660a08601526001600160401b038160801c1660c086015260c01c60e085015261341460058201612e99565b61010085015260ff6006820154161515610120850152600781015461014085015260088101546101608501526009810154610180850152600a8101546101a085015261349560ff600b83015481811615156101c0880152818160081c1615156101e0880152818160101c16151561020088015260181c166102208601613365565b0154910152565b156134a357565b60405162461bcd60e51b81526020600482015260146024820152734e6f2066756e647320746f20776974686472617760601b6044820152606490fd5b6001600160401b03811161089a57601f01601f191660200190565b1561350157565b60405162461bcd60e51b815260206004820152600f60248201526e2737ba1032bb32b73a1037bbb732b960891b6044820152606490fd5b1561353f57565b60405162461bcd60e51b8152602060048201526013602482015272115d995b9d08191bd95cdb89dd08195e1a5cdd606a1b6044820152606490fd5b1561358157565b60405162461bcd60e51b81526020600482015260136024820152724576656e74206f776e6572206973207a65726f60681b6044820152606490fd5b156135c357565b60405162461bcd60e51b815260206004820152600f60248201526e10dbdb9d1c9858dd081c185d5cd959608a1b6044820152606490fd5b1561360157565b60405162461bcd60e51b8152602060048201526014602482015273115d995b9d08191bd95cc81b9bdd08195e1a5cdd60621b6044820152606490fd5b1561364457565b60405162461bcd60e51b8152602060048201526016602482015275119d5b991cc8185b1c9958591e481c995b19585cd95960521b6044820152606490fd5b9190820180921161040857565b8054821015613351575f5260205f2001905f90565b156136ab57565b60405162461bcd60e51b81526020600482015260136024820152724576656e74206973206e6f742061637469766560681b6044820152606490fd5b156136ed57565b60405162461bcd60e51b8152602060048201526013602482015272092dcecc2d8d2c840dcc2daca40d8cadccee8d606b1b6044820152606490fd5b1561372f57565b60405162461bcd60e51b8152602060048201526012602482015271092dcecc2d8d2c840aaa49840d8cadccee8d60731b6044820152606490fd5b1561377057565b60405162461bcd60e51b8152602060048201526016602482015275092dcecc2d8d2c840c8cae8c2d2d8e640d8cadccee8d60531b6044820152606490fd5b156137b557565b60405162461bcd60e51b815260206004820152601760248201527f496e76616c6964206c6f636174696f6e206c656e6774680000000000000000006044820152606490fd5b1561380157565b60405162461bcd60e51b8152602060048201526014602482015273496e76616c6964207469636b657420707269636560601b6044820152606490fd5b1561384457565b60405162461bcd60e51b815260206004820152601060248201526f496e76616c696420636170616369747960801b6044820152606490fd5b1561388357565b60405162461bcd60e51b8152602060048201526015602482015274496e76616c696420726566756e6420706f6c69637960581b6044820152606490fd5b156138c757565b60405162461bcd60e51b815260206004820152601560248201527424b73b30b634b2103932b33ab73210313ab33332b960591b6044820152606490fd5b9190820391821161040857565b1561391857565b60405162461bcd60e51b815260206004820152602660248201527f526566756e642062756666657220657863656564732074696d6520756e74696c60448201526508195d995b9d60d21b6064820152608490fd5b929192613978826134df565b916139866040519384612e78565b82948184528183011161020d578281602093845f960137010152565b601f82116139af57505050565b5f5260205f20906020601f840160051c830193106139e7575b601f0160051c01905b8181106139dc575050565b5f81556001016139d1565b90915081906139c8565b9060038110156113775763ff00000082549160181b169063ff0000001916179055565b90918060409360208452816020850152848401375f828201840152601f01601f1916010190565b90604051918281549182825260208201905f5260205f20925f5b818110613a6a575050612ed192500383612e78565b84546001600160a01b0316835260019485019487945060209093019201613a55565b606460405162461bcd60e51b815260206004820152602060248201527f44697265637420455448207472616e7366657273206e6f7420616c6c6f7765646044820152fd5b60025f516020613b4f5f395f51905f525414613af95760025f516020613b4f5f395f51905f5255565b633ee5aeb560e01b5f5260045ffd5b5f546001600160a01b03163303613b1b57565b63118cdaa760e01b5f523360045260245ffdfe61f4a796c29c0b19830a107f63c010f13bcd46bf2118e1747abc3dedad4c24039b779b17422d0df92223018b32b4d1fa46e071723d6817e2486d003becc55f00a2646970667358221220ba84c3c41406228588904154d55c0b9642bc2bab968dbc49e27d1561797597e664736f6c634300081c0033",
        "linkReferences": {}
    },
    "methodIdentifiers": {
        "EMERGENCY_WITHDRAWAL_DELAY()": "c2f1cac0",
        "MAX_AGE()": "0dcaeaf2",
        "MAX_CAPACITY()": "3a5ddf30",
        "MAX_DETAILS_LENGTH()": "50d9c62d",
        "MAX_EVENT_DURATION()": "60eaa6a5",
        "MAX_LOCATION_LENGTH()": "abf45ec8",
        "MAX_NAME_LENGTH()": "86074985",
        "MAX_TICKET_PRICE()": "b5e41287",
        "MAX_URL_LENGTH()": "cb71146e",
        "MIN_CAPACITY()": "4256cae6",
        "MIN_EVENT_DURATION()": "1ac78969",
        "attendeeCount(uint256)": "95a16d91",
        "buyTicket(uint256)": "67dd74ca",
        "cancelEvent(uint256)": "3f69babd",
        "createEvent(string,string,string,uint64,uint64,uint64,uint64,string,uint256,uint256,uint256,uint8,uint256)": "a28e7a9d",
        "emergencyWithdrawFunds(uint256)": "eb7e4d44",
        "eventCount()": "71be2e4a",
        "events(uint256)": "0b791430",
        "getActiveEventsByCreator()": "ccfd6d3c",
        "getAllEvents()": "c27a500d",
        "getAttendees(uint256)": "e0c14377",
        "getEventById(uint256)": "b98079bc",
        "getEventIdsByCreator(address)": "775e1e5e",
        "getEventLength()": "5c98dfa1",
        "getEventsByCreator(address)": "20020581",
        "getPendingWithdrawal(address)": "7ee8b2f8",
        "getUserEvents()": "0f977561",
        "hasPurchasedTicket(uint256,address)": "439fd35f",
        "isAttendee(uint256,address)": "1bf23cde",
        "owner()": "8da5cb5b",
        "paused()": "5c975abb",
        "pendingWithdrawals(address)": "f3f43703",
        "releaseFunds(uint256)": "4d68282f",
        "renounceOwnership()": "715018a6",
        "requestRefund(uint256)": "a4b2409e",
        "togglePause()": "c4ae3168",
        "transferOwnership(address)": "f2fde38b",
        "transferTicket(uint256,address)": "679ebf1a",
        "updateEvent(uint256,string,string,string,string,uint256,uint256,uint8,uint256)": "d8ff1816",
        "withdraw()": "3ccfd60b"
    },
    "id": 20
}